{
  "contractName": "ERC721",
  "abi": [
    {
      "inputs": [],
      "stateMutability": "nonpayable",
      "type": "constructor"
    },
    {
      "anonymous": false,
      "inputs": [
        {
          "indexed": true,
          "internalType": "address",
          "name": "_owner",
          "type": "address"
        },
        {
          "indexed": true,
          "internalType": "address",
          "name": "_approved",
          "type": "address"
        },
        {
          "indexed": true,
          "internalType": "uint256",
          "name": "_tokenId",
          "type": "uint256"
        }
      ],
      "name": "Approval",
      "type": "event"
    },
    {
      "anonymous": false,
      "inputs": [
        {
          "indexed": true,
          "internalType": "address",
          "name": "_from",
          "type": "address"
        },
        {
          "indexed": true,
          "internalType": "address",
          "name": "_to",
          "type": "address"
        },
        {
          "indexed": true,
          "internalType": "uint256",
          "name": "_tokenId",
          "type": "uint256"
        }
      ],
      "name": "Transfer",
      "type": "event"
    },
    {
      "inputs": [
        {
          "internalType": "bytes4",
          "name": "interfaceID",
          "type": "bytes4"
        }
      ],
      "name": "supportsInterface",
      "outputs": [
        {
          "internalType": "bool",
          "name": "",
          "type": "bool"
        }
      ],
      "stateMutability": "view",
      "type": "function"
    },
    {
      "inputs": [
        {
          "internalType": "address",
          "name": "_owner",
          "type": "address"
        }
      ],
      "name": "balanceOf",
      "outputs": [
        {
          "internalType": "uint256",
          "name": "",
          "type": "uint256"
        }
      ],
      "stateMutability": "view",
      "type": "function"
    },
    {
      "inputs": [
        {
          "internalType": "uint256",
          "name": "_tokenId",
          "type": "uint256"
        }
      ],
      "name": "ownerOf",
      "outputs": [
        {
          "internalType": "address",
          "name": "",
          "type": "address"
        }
      ],
      "stateMutability": "view",
      "type": "function"
    },
    {
      "inputs": [
        {
          "internalType": "address",
          "name": "_from",
          "type": "address"
        },
        {
          "internalType": "address",
          "name": "_to",
          "type": "address"
        },
        {
          "internalType": "uint256",
          "name": "_tokenId",
          "type": "uint256"
        }
      ],
      "name": "transferFrom",
      "outputs": [],
      "stateMutability": "nonpayable",
      "type": "function"
    }
  ],
  "bytecode": "0x608060405234801561001057600080fd5b506100407f01ffc9a7a5cef8baa21ed3c5c0d7e23accb804b619e9333b597f47a0d84076e26100b860201b60201c565b6100b37f22c82707ba960a14c7592ffb6b8cfaa073fed0048a84cc7fa41f6b5bd8e7f2e47f3a6eb71757dfc6e784c1459d26270140c2c147d95ca985c80026fc5301c3eca17f8a7e378434598edc36d108689a030cbc9d7d465de4f74c71bae1028eed6a881b18186100b860201b60201c565b610209565b63ffffffff60e01b817bffffffffffffffffffffffffffffffffffffffffffffffffffffffff191603610120576040517f08c379a0000000000000000000000000000000000000000000000000000000008152600401610117906101e9565b60405180910390fd5b6001600080837bffffffffffffffffffffffffffffffffffffffffffffffffffffffff19167bffffffffffffffffffffffffffffffffffffffffffffffffffffffff1916815260200190815260200160002060006101000a81548160ff02191690831515021790555050565b600082825260208201905092915050565b7f496e76616c696420696e74657266616365207265717565737400000000000000600082015250565b60006101d360198361018c565b91506101de8261019d565b602082019050919050565b60006020820190508181036000830152610202816101c6565b9050919050565b610a1c806102186000396000f3fe608060405234801561001057600080fd5b506004361061004c5760003560e01c806301ffc9a71461005157806323b872dd146100815780636352211e1461009d57806370a08231146100cd575b600080fd5b61006b6004803603810190610066919061057c565b6100fd565b60405161007891906105c4565b60405180910390f35b61009b60048036038101906100969190610673565b610164565b005b6100b760048036038101906100b291906106c6565b610174565b6040516100c49190610702565b60405180910390f35b6100e760048036038101906100e2919061071d565b610225565b6040516100f49190610759565b60405180910390f35b6000806000837bffffffffffffffffffffffffffffffffffffffffffffffffffffffff19167bffffffffffffffffffffffffffffffffffffffffffffffffffffffff1916815260200190815260200160002060009054906101000a900460ff169050919050565b61016f8383836102dc565b505050565b6000806001600084815260200190815260200160002060009054906101000a900473ffffffffffffffffffffffffffffffffffffffff169050600073ffffffffffffffffffffffffffffffffffffffff168173ffffffffffffffffffffffffffffffffffffffff160361021c576040517f08c379a0000000000000000000000000000000000000000000000000000000008152600401610213906107f7565b60405180910390fd5b80915050919050565b60008073ffffffffffffffffffffffffffffffffffffffff168273ffffffffffffffffffffffffffffffffffffffff1603610295576040517f08c379a000000000000000000000000000000000000000000000000000000000815260040161028c906107f7565b60405180910390fd5b600260008373ffffffffffffffffffffffffffffffffffffffff1673ffffffffffffffffffffffffffffffffffffffff168152602001908152602001600020549050919050565b600073ffffffffffffffffffffffffffffffffffffffff168273ffffffffffffffffffffffffffffffffffffffff160361034b576040517f08c379a000000000000000000000000000000000000000000000000000000000815260040161034290610889565b60405180910390fd5b8273ffffffffffffffffffffffffffffffffffffffff1661036b82610174565b73ffffffffffffffffffffffffffffffffffffffff16146103c1576040517f08c379a00000000000000000000000000000000000000000000000000000000081526004016103b89061091b565b60405180910390fd5b6001600260008573ffffffffffffffffffffffffffffffffffffffff1673ffffffffffffffffffffffffffffffffffffffff1681526020019081526020016000206000828254610411919061096a565b92505081905550600260008373ffffffffffffffffffffffffffffffffffffffff1673ffffffffffffffffffffffffffffffffffffffff16815260200190815260200160002060008154809291906104689061099e565b9190505550816001600083815260200190815260200160002060006101000a81548173ffffffffffffffffffffffffffffffffffffffff021916908373ffffffffffffffffffffffffffffffffffffffff160217905550808273ffffffffffffffffffffffffffffffffffffffff168473ffffffffffffffffffffffffffffffffffffffff167fddf252ad1be2c89b69c2b068fc378daa952ba7f163c4a11628f55a4df523b3ef60405160405180910390a4505050565b600080fd5b60007fffffffff0000000000000000000000000000000000000000000000000000000082169050919050565b61055981610524565b811461056457600080fd5b50565b60008135905061057681610550565b92915050565b6000602082840312156105925761059161051f565b5b60006105a084828501610567565b91505092915050565b60008115159050919050565b6105be816105a9565b82525050565b60006020820190506105d960008301846105b5565b92915050565b600073ffffffffffffffffffffffffffffffffffffffff82169050919050565b600061060a826105df565b9050919050565b61061a816105ff565b811461062557600080fd5b50565b60008135905061063781610611565b92915050565b6000819050919050565b6106508161063d565b811461065b57600080fd5b50565b60008135905061066d81610647565b92915050565b60008060006060848603121561068c5761068b61051f565b5b600061069a86828701610628565b93505060206106ab86828701610628565b92505060406106bc8682870161065e565b9150509250925092565b6000602082840312156106dc576106db61051f565b5b60006106ea8482850161065e565b91505092915050565b6106fc816105ff565b82525050565b600060208201905061071760008301846106f3565b92915050565b6000602082840312156107335761073261051f565b5b600061074184828501610628565b91505092915050565b6107538161063d565b82525050565b600060208201905061076e600083018461074a565b92915050565b600082825260208201905092915050565b7f4f776e657220717565727920666f72206e6f6e2d6578697374656e7420746f6b60008201527f656e000000000000000000000000000000000000000000000000000000000000602082015250565b60006107e1602283610774565b91506107ec82610785565b604082019050919050565b60006020820190508181036000830152610810816107d4565b9050919050565b7f4572726f72202d20455243373231205472616e7366657220746f20746865207a60008201527f65726f2061646472657373000000000000000000000000000000000000000000602082015250565b6000610873602b83610774565b915061087e82610817565b604082019050919050565b600060208201905081810360008301526108a281610866565b9050919050565b7f4572726f72202d20547279696e6720746f207472616e73666572206120746f6b60008201527f656e20746865206164647265737320646f657374206e6f74206f776e00000000602082015250565b6000610905603c83610774565b9150610910826108a9565b604082019050919050565b60006020820190508181036000830152610934816108f8565b9050919050565b7f4e487b7100000000000000000000000000000000000000000000000000000000600052601160045260246000fd5b60006109758261063d565b91506109808361063d565b92508282039050818111156109985761099761093b565b5b92915050565b60006109a98261063d565b91507fffffffffffffffffffffffffffffffffffffffffffffffffffffffffffffffff82036109db576109da61093b565b5b60018201905091905056fea2646970667358221220d502f954ce7b90449f4167a14e663582e902c765b3d7b767cbd58f69df75778f64736f6c63430008110033",
  "immutableReferences": {},
  "source": "// SPDX-License-Identifier: MIT\r\npragma solidity ^0.8.0;\r\n\r\nimport './ERC165.sol';\r\nimport './interfaces/IERC721.sol';\r\n\r\n\r\n  contract ERC721 is ERC165,IERC721 {\r\n  \r\n    /*\r\n             steps to building out the minting function-\r\n        a. nfts to point an address\r\n        b.keep track of token ids\r\n        c.keep track of token owners address to token id mapping\r\n        d.keep track of how many tokens are owned by an address \r\n        e.create an event that emits a transfer log (contract address, from, to, token id)\r\n        requirements--\r\n        1.require that the minting address isnt 0\r\n        2.require that the token has not been minted before\r\n    */\r\n mapping(uint256 => address) private _tokenOwner;\r\n mapping(address => uint256) private _OwnedTokensCount;\r\n mapping(uint256=>address) private _tokenApprovals;\r\n\r\n   //  / @notice Count all NFTs assigned to an owner\r\n   //  / @dev NFTs assigned to the zero address are considered invalid, and this\r\n   //  /  function throws for queries about the zero address.\r\n   //  / @param _owner An address for whom to query the balance\r\n   //  / @return The number of NFTs owned by `_owner`, possibly zero\r\n\r\n\r\n       //1.Register the interdace for ERC721 contract so that it includes the follwing functions : balanceOf,ownerOf,transferFrom\r\n       // by register the interface :write the constructors with the according byte conversions\r\n\r\n       //2. Register the interface for ERC721Enumerable contract so that it includes totalSupply,\r\n       //tokenByIndex,tokenOfOwnerByIndex fxns\r\n\r\n        //3. Register the interdace for the ER721MEtadata contract so that it includes name and symbol fxns\r\n  \r\n\r\n  \r\n constructor(){\r\n    _registerInterface(bytes4(keccak256('balanceOf(bytes4)')^\r\n    keccak256('ownerOf(bytes4)')^\r\n    keccak256('transferFrom(bytes4)')));\r\n  }\r\n\r\n function balanceOf(address _owner) public view override returns (uint256){\r\n     require(_owner != address(0),'Owner query for non-existent token');\r\n     return _OwnedTokensCount[_owner];\r\n }\r\n\r\n   //  / @notice Find the owner of an NFT\r\n   //  / @dev NFTs assigned to zero address are considered invalid, and queries\r\n   //  /  about them do throw.\r\n   //  / @param _tokenId The identifier for an NFT\r\n   //  / @return The address of the owner of the NFT\r\n\r\n   function ownerOf(uint256 _tokenId) public view override returns (address){\r\n      address owner=_tokenOwner[_tokenId];\r\n      require(owner != address(0),'Owner query for non-existent token');\r\n      return owner;\r\n\r\n   }\r\n\r\n\r\n function _exists(uint256 tokenId) internal view returns(bool){\r\n    address owner = _tokenOwner[tokenId];\r\n    return owner !=address(0);\r\n }\r\n   function _mint(address to,uint256 tokenId) internal virtual{\r\n      //we need to write a function to check whether a token has been minted or not then we'll use it in require\r\n\r\n     require(to!=address(0));\r\n     require(!_exists(tokenId)); //should be false\r\n    //who owns which token \r\n        _tokenOwner[tokenId] = to;\r\n        _OwnedTokensCount[to]++;\r\n        emit Transfer(address(0),to,tokenId);\r\n   }\r\n\r\n   // / @notice Transfer ownership of an NFT -- THE CALLER IS RESPONSIBLE\r\n   //  /  TO CONFIRM THAT `_to` IS CAPABLE OF RECEIVING NFTS OR ELSE\r\n   //  /  THEY MAY BE PERMANENTLY LOST\r\n   //  / @dev Throws unless `msg.sender` is the current owner, an authorized\r\n   //  /  operator, or the approved address for this NFT. Throws if `_from` is\r\n   //  /  not the current owner. Throws if `_to` is the zero address. Throws if\r\n   //  /  `_tokenId` is not a valid NFT.\r\n   //  / @param _from The current owner of the NFT\r\n   //  / @param _to The new owner\r\n   //  / @param _tokenId The NFT to transfer\r\n    function _transferFrom(address _from, address _to, uint256 _tokenId) internal{\r\n      // Exercise -\r\n      //  1.add the token id to the address recieving the token\r\n      //  2.update the balance of the address _from token\r\n      //  3.update the balance of the address _to\r\n      //  4.add the safe functionality \r\n      //  5.require that the address receiving a token is not a zero address\r\n      //  6.require the address transfering the token actually owns the token\r\n       \r\n       require(_to!=address(0),\"Error - ERC721 Transfer to the zero address\");\r\n       require(ownerOf(_tokenId)==_from,\"Error - Trying to transfer a token the address doest not own\");\r\n       _OwnedTokensCount[_from]-=1;\r\n       _OwnedTokensCount[_to]++;\r\n       _tokenOwner[_tokenId]=_to;\r\n       emit Transfer (_from,_to,_tokenId);\r\n    }\r\n\r\n    function transferFrom(address _from, address _to, uint256 _tokenId) override public{\r\n         _transferFrom(_from,_to,_tokenId);\r\n    }\r\n    \r\n\r\n}",
  "sourcePath": "F:\\Code\\DEV\\BlockChain\\NFT-Marketplace\\src\\contracts\\ERC721.sol",
  "compiler": {
    "name": "solc",
    "version": "0.8.17+commit.8df45f5f.Emscripten.clang"
  },
  "schemaVersion": "3.4.8",
  "updatedAt": "2022-09-14T16:34:44.684Z",
  "devdoc": {
    "kind": "dev",
    "methods": {
      "supportsInterface(bytes4)": {
        "details": "Interface identification is specified in ERC-165. This function  uses less than 30,000 gas.",
        "params": {
          "interfaceID": "The interface identifier, as specified in ERC-165"
        },
        "returns": {
          "_0": "`true` if the contract implements `interfaceID` and  `interfaceID` is not 0xffffffff, `false` otherwise"
        }
      }
    },
    "version": 1
  },
  "userdoc": {
    "kind": "user",
    "methods": {
      "supportsInterface(bytes4)": {
        "notice": "Query if a contract implements an interface"
      }
    },
    "version": 1
  }
}