{
  "contractName": "ERC721",
  "abi": [
    {
      "anonymous": false,
      "inputs": [
        {
          "indexed": true,
          "internalType": "address",
          "name": "from",
          "type": "address"
        },
        {
          "indexed": true,
          "internalType": "address",
          "name": "to",
          "type": "address"
        },
        {
          "indexed": true,
          "internalType": "uint256",
          "name": "tokenId",
          "type": "uint256"
        }
      ],
      "name": "Transfer",
      "type": "event"
    },
    {
      "inputs": [
        {
          "internalType": "address",
          "name": "_owner",
          "type": "address"
        }
      ],
      "name": "balanceOf",
      "outputs": [
        {
          "internalType": "uint256",
          "name": "",
          "type": "uint256"
        }
      ],
      "stateMutability": "view",
      "type": "function"
    },
    {
      "inputs": [
        {
          "internalType": "uint256",
          "name": "_tokenId",
          "type": "uint256"
        }
      ],
      "name": "ownerOf",
      "outputs": [
        {
          "internalType": "address",
          "name": "",
          "type": "address"
        }
      ],
      "stateMutability": "view",
      "type": "function"
    },
    {
      "inputs": [
        {
          "internalType": "address",
          "name": "_from",
          "type": "address"
        },
        {
          "internalType": "address",
          "name": "_to",
          "type": "address"
        },
        {
          "internalType": "uint256",
          "name": "_tokenId",
          "type": "uint256"
        }
      ],
      "name": "transferFrom",
      "outputs": [],
      "stateMutability": "nonpayable",
      "type": "function"
    }
  ],
  "bytecode": "0x608060405234801561001057600080fd5b506108bc806100206000396000f3fe608060405234801561001057600080fd5b50600436106100415760003560e01c806323b872dd146100465780636352211e1461006257806370a0823114610092575b600080fd5b610060600480360381019061005b9190610513565b6100c2565b005b61007c60048036038101906100779190610566565b6100d2565b60405161008991906105a2565b60405180910390f35b6100ac60048036038101906100a791906105bd565b610182565b6040516100b991906105f9565b60405180910390f35b6100cd838383610239565b505050565b60008060008084815260200190815260200160002060009054906101000a900473ffffffffffffffffffffffffffffffffffffffff169050600073ffffffffffffffffffffffffffffffffffffffff168173ffffffffffffffffffffffffffffffffffffffff1603610179576040517f08c379a000000000000000000000000000000000000000000000000000000000815260040161017090610697565b60405180910390fd5b80915050919050565b60008073ffffffffffffffffffffffffffffffffffffffff168273ffffffffffffffffffffffffffffffffffffffff16036101f2576040517f08c379a00000000000000000000000000000000000000000000000000000000081526004016101e990610697565b60405180910390fd5b600160008373ffffffffffffffffffffffffffffffffffffffff1673ffffffffffffffffffffffffffffffffffffffff168152602001908152602001600020549050919050565b600073ffffffffffffffffffffffffffffffffffffffff168273ffffffffffffffffffffffffffffffffffffffff16036102a8576040517f08c379a000000000000000000000000000000000000000000000000000000000815260040161029f90610729565b60405180910390fd5b8273ffffffffffffffffffffffffffffffffffffffff166102c8826100d2565b73ffffffffffffffffffffffffffffffffffffffff161461031e576040517f08c379a0000000000000000000000000000000000000000000000000000000008152600401610315906107bb565b60405180910390fd5b60018060008573ffffffffffffffffffffffffffffffffffffffff1673ffffffffffffffffffffffffffffffffffffffff168152602001908152602001600020600082825461036d919061080a565b92505081905550600160008373ffffffffffffffffffffffffffffffffffffffff1673ffffffffffffffffffffffffffffffffffffffff16815260200190815260200160002060008154809291906103c49061083e565b91905055508160008083815260200190815260200160002060006101000a81548173ffffffffffffffffffffffffffffffffffffffff021916908373ffffffffffffffffffffffffffffffffffffffff160217905550808273ffffffffffffffffffffffffffffffffffffffff168473ffffffffffffffffffffffffffffffffffffffff167fddf252ad1be2c89b69c2b068fc378daa952ba7f163c4a11628f55a4df523b3ef60405160405180910390a4505050565b600080fd5b600073ffffffffffffffffffffffffffffffffffffffff82169050919050565b60006104aa8261047f565b9050919050565b6104ba8161049f565b81146104c557600080fd5b50565b6000813590506104d7816104b1565b92915050565b6000819050919050565b6104f0816104dd565b81146104fb57600080fd5b50565b60008135905061050d816104e7565b92915050565b60008060006060848603121561052c5761052b61047a565b5b600061053a868287016104c8565b935050602061054b868287016104c8565b925050604061055c868287016104fe565b9150509250925092565b60006020828403121561057c5761057b61047a565b5b600061058a848285016104fe565b91505092915050565b61059c8161049f565b82525050565b60006020820190506105b76000830184610593565b92915050565b6000602082840312156105d3576105d261047a565b5b60006105e1848285016104c8565b91505092915050565b6105f3816104dd565b82525050565b600060208201905061060e60008301846105ea565b92915050565b600082825260208201905092915050565b7f4f776e657220717565727920666f72206e6f6e2d6578697374656e7420746f6b60008201527f656e000000000000000000000000000000000000000000000000000000000000602082015250565b6000610681602283610614565b915061068c82610625565b604082019050919050565b600060208201905081810360008301526106b081610674565b9050919050565b7f4572726f72202d20455243373231205472616e7366657220746f20746865207a60008201527f65726f2061646472657373000000000000000000000000000000000000000000602082015250565b6000610713602b83610614565b915061071e826106b7565b604082019050919050565b6000602082019050818103600083015261074281610706565b9050919050565b7f4572726f72202d20547279696e6720746f207472616e73666572206120746f6b60008201527f656e20746865206164647265737320646f657374206e6f74206f776e00000000602082015250565b60006107a5603c83610614565b91506107b082610749565b604082019050919050565b600060208201905081810360008301526107d481610798565b9050919050565b7f4e487b7100000000000000000000000000000000000000000000000000000000600052601160045260246000fd5b6000610815826104dd565b9150610820836104dd565b9250828203905081811115610838576108376107db565b5b92915050565b6000610849826104dd565b91507fffffffffffffffffffffffffffffffffffffffffffffffffffffffffffffffff820361087b5761087a6107db565b5b60018201905091905056fea264697066735822122018700deb4ffc5373d26be9e7d5f231cb5e9c890b158fce318537221fe236972064736f6c63430008100033",
  "immutableReferences": {},
  "source": "// SPDX-License-Identifier: MIT\r\npragma solidity ^0.8.0;\r\n\r\ncontract ERC721{\r\n    event Transfer (address indexed from, address indexed to, uint256 indexed tokenId);\r\n    /*\r\n             steps to building out the minting function-\r\n        a. nfts to point an address\r\n        b.keep track of token ids\r\n        c.keep track of token owners address to token id mapping\r\n        d.keep track of how many tokens are owned by an address \r\n        e.create an event that emits a transfer log (contract address, from, to, token id)\r\n        requirements--\r\n        1.require that the minting address isnt 0\r\n        2.require that the token has not been minted before\r\n    */\r\n mapping(uint256 => address) private _tokenOwner;\r\n mapping(address => uint256) private _OwnedTokensCount;\r\n mapping(uint256=>address) private _tokenApprovals;\r\n\r\n   //  / @notice Count all NFTs assigned to an owner\r\n   //  / @dev NFTs assigned to the zero address are considered invalid, and this\r\n   //  /  function throws for queries about the zero address.\r\n   //  / @param _owner An address for whom to query the balance\r\n   //  / @return The number of NFTs owned by `_owner`, possibly zero\r\n\r\n \r\n function balanceOf(address _owner) public view returns (uint256){\r\n     require(_owner != address(0),'Owner query for non-existent token');\r\n     return _OwnedTokensCount[_owner];\r\n }\r\n\r\n   //  / @notice Find the owner of an NFT\r\n   //  / @dev NFTs assigned to zero address are considered invalid, and queries\r\n   //  /  about them do throw.\r\n   //  / @param _tokenId The identifier for an NFT\r\n   //  / @return The address of the owner of the NFT\r\n\r\n   function ownerOf(uint256 _tokenId) public view returns (address){\r\n      address owner=_tokenOwner[_tokenId];\r\n      require(owner != address(0),'Owner query for non-existent token');\r\n      return owner;\r\n\r\n   }\r\n\r\n\r\n function _exists(uint256 tokenId) internal view returns(bool){\r\n    address owner = _tokenOwner[tokenId];\r\n    return owner !=address(0);\r\n }\r\n   function _mint(address to,uint256 tokenId) internal virtual{\r\n      //we need to write a function to check whether a token has been minted or not then we'll use it in require\r\n\r\n     require(to!=address(0));\r\n     require(!_exists(tokenId)); //should be false\r\n    //who owns which token \r\n        _tokenOwner[tokenId] = to;\r\n        _OwnedTokensCount[to]++;\r\n        emit Transfer(address(0),to,tokenId);\r\n   }\r\n\r\n   // / @notice Transfer ownership of an NFT -- THE CALLER IS RESPONSIBLE\r\n   //  /  TO CONFIRM THAT `_to` IS CAPABLE OF RECEIVING NFTS OR ELSE\r\n   //  /  THEY MAY BE PERMANENTLY LOST\r\n   //  / @dev Throws unless `msg.sender` is the current owner, an authorized\r\n   //  /  operator, or the approved address for this NFT. Throws if `_from` is\r\n   //  /  not the current owner. Throws if `_to` is the zero address. Throws if\r\n   //  /  `_tokenId` is not a valid NFT.\r\n   //  / @param _from The current owner of the NFT\r\n   //  / @param _to The new owner\r\n   //  / @param _tokenId The NFT to transfer\r\n    function _transferFrom(address _from, address _to, uint256 _tokenId) internal{\r\n      // Exercise -\r\n      //  1.add the token id to the address recieving the token\r\n      //  2.update the balance of the address _from token\r\n      //  3.update the balance of the address _to\r\n      //  4.add the safe functionality \r\n      //  5.require that the address receiving a token is not a zero address\r\n      //  6.require the address transfering the token actually owns the token\r\n       \r\n       require(_to!=address(0),\"Error - ERC721 Transfer to the zero address\");\r\n       require(ownerOf(_tokenId)==_from,\"Error - Trying to transfer a token the address doest not own\");\r\n       _OwnedTokensCount[_from]-=1;\r\n       _OwnedTokensCount[_to]++;\r\n       _tokenOwner[_tokenId]=_to;\r\n       emit Transfer (_from,_to,_tokenId);\r\n    }\r\n\r\n    function transferFrom(address _from, address _to, uint256 _tokenId) public{\r\n         _transferFrom(_from,_to,_tokenId);\r\n    }\r\n    \r\n\r\n}",
  "sourcePath": "F:\\Code\\DEV\\BlockChain\\NFT-Marketplace\\src\\contracts\\ERC721.sol",
  "compiler": {
    "name": "solc",
    "version": "0.8.16+commit.07a7930e.Emscripten.clang"
  },
  "schemaVersion": "3.4.8",
  "updatedAt": "2022-09-02T15:38:47.961Z",
  "devdoc": {
    "kind": "dev",
    "methods": {},
    "version": 1
  },
  "userdoc": {
    "kind": "user",
    "methods": {},
    "version": 1
  }
}