{
  "contractName": "KryptoBird",
  "abi": [
    {
      "inputs": [],
      "stateMutability": "nonpayable",
      "type": "constructor"
    },
    {
      "anonymous": false,
      "inputs": [
        {
          "indexed": true,
          "internalType": "address",
          "name": "from",
          "type": "address"
        },
        {
          "indexed": true,
          "internalType": "address",
          "name": "to",
          "type": "address"
        },
        {
          "indexed": true,
          "internalType": "uint256",
          "name": "tokenId",
          "type": "uint256"
        }
      ],
      "name": "Transfer",
      "type": "event"
    },
    {
      "inputs": [
        {
          "internalType": "address",
          "name": "_owner",
          "type": "address"
        }
      ],
      "name": "balanceOf",
      "outputs": [
        {
          "internalType": "uint256",
          "name": "",
          "type": "uint256"
        }
      ],
      "stateMutability": "view",
      "type": "function",
      "constant": true
    },
    {
      "inputs": [
        {
          "internalType": "uint256",
          "name": "",
          "type": "uint256"
        }
      ],
      "name": "kryptoBirdz",
      "outputs": [
        {
          "internalType": "string",
          "name": "",
          "type": "string"
        }
      ],
      "stateMutability": "view",
      "type": "function",
      "constant": true
    },
    {
      "inputs": [],
      "name": "name",
      "outputs": [
        {
          "internalType": "string",
          "name": "",
          "type": "string"
        }
      ],
      "stateMutability": "view",
      "type": "function",
      "constant": true
    },
    {
      "inputs": [
        {
          "internalType": "uint256",
          "name": "_tokenId",
          "type": "uint256"
        }
      ],
      "name": "ownerOf",
      "outputs": [
        {
          "internalType": "address",
          "name": "",
          "type": "address"
        }
      ],
      "stateMutability": "view",
      "type": "function",
      "constant": true
    },
    {
      "inputs": [],
      "name": "symbol",
      "outputs": [
        {
          "internalType": "string",
          "name": "",
          "type": "string"
        }
      ],
      "stateMutability": "view",
      "type": "function",
      "constant": true
    },
    {
      "inputs": [],
      "name": "totalSupply",
      "outputs": [
        {
          "internalType": "uint256",
          "name": "",
          "type": "uint256"
        }
      ],
      "stateMutability": "view",
      "type": "function",
      "constant": true
    },
    {
      "inputs": [],
      "name": "totalSuppy",
      "outputs": [
        {
          "internalType": "uint256",
          "name": "",
          "type": "uint256"
        }
      ],
      "stateMutability": "view",
      "type": "function",
      "constant": true
    },
    {
      "inputs": [
        {
          "internalType": "string",
          "name": "_kryptoBird",
          "type": "string"
        }
      ],
      "name": "mint",
      "outputs": [],
      "stateMutability": "nonpayable",
      "type": "function"
    }
  ],
  "bytecode": "0x60806040523480156200001157600080fd5b506040518060400160405280600a81526020017f4b727970746f42697264000000000000000000000000000000000000000000008152506040518060400160405280600681526020017f4b424952445a00000000000000000000000000000000000000000000000000008152508181816000908162000091919062000328565b508060019081620000a3919062000328565b50505050506200040f565b600081519050919050565b7f4e487b7100000000000000000000000000000000000000000000000000000000600052604160045260246000fd5b7f4e487b7100000000000000000000000000000000000000000000000000000000600052602260045260246000fd5b600060028204905060018216806200013057607f821691505b602082108103620001465762000145620000e8565b5b50919050565b60008190508160005260206000209050919050565b60006020601f8301049050919050565b600082821b905092915050565b600060088302620001b07fffffffffffffffffffffffffffffffffffffffffffffffffffffffffffffffff8262000171565b620001bc868362000171565b95508019841693508086168417925050509392505050565b6000819050919050565b6000819050919050565b60006200020962000203620001fd84620001d4565b620001de565b620001d4565b9050919050565b6000819050919050565b6200022583620001e8565b6200023d620002348262000210565b8484546200017e565b825550505050565b600090565b6200025462000245565b620002618184846200021a565b505050565b5b8181101562000289576200027d6000826200024a565b60018101905062000267565b5050565b601f821115620002d857620002a2816200014c565b620002ad8462000161565b81016020851015620002bd578190505b620002d5620002cc8562000161565b83018262000266565b50505b505050565b600082821c905092915050565b6000620002fd60001984600802620002dd565b1980831691505092915050565b6000620003188383620002ea565b9150826002028217905092915050565b6200033382620000ae565b67ffffffffffffffff8111156200034f576200034e620000b9565b5b6200035b825462000117565b620003688282856200028d565b600060209050601f831160018114620003a057600084156200038b578287015190505b6200039785826200030a565b86555062000407565b601f198416620003b0866200014c565b60005b82811015620003da57848901518255600182019150602085019450602081019050620003b3565b86831015620003fa5784890151620003f6601f891682620002ea565b8355505b6001600288020188555050505b505050505050565b6110c3806200041f6000396000f3fe608060405234801561001057600080fd5b50600436106100885760003560e01c806393ab6e561161005b57806393ab6e561461012957806395d89b4114610159578063d524ccbb14610177578063d85d3d271461019557610088565b806306fdde031461008d57806318160ddd146100ab5780636352211e146100c957806370a08231146100f9575b600080fd5b6100956101b1565b6040516100a29190610897565b60405180910390f35b6100b3610243565b6040516100c091906108d2565b60405180910390f35b6100e360048036038101906100de919061092d565b610250565b6040516100f0919061099b565b60405180910390f35b610113600480360381019061010e91906109e2565b610301565b60405161012091906108d2565b60405180910390f35b610143600480360381019061013e919061092d565b6103b8565b6040516101509190610897565b60405180910390f35b610161610464565b60405161016e9190610897565b60405180910390f35b61017f6104f6565b60405161018c91906108d2565b60405180910390f35b6101af60048036038101906101aa9190610b44565b610503565b005b6060600080546101c090610bbc565b80601f01602080910402602001604051908101604052809291908181526020018280546101ec90610bbc565b80156102395780601f1061020e57610100808354040283529160200191610239565b820191906000526020600020905b81548152906001019060200180831161021c57829003601f168201915b5050505050905090565b6000600480549050905090565b6000806002600084815260200190815260200160002060009054906101000a900473ffffffffffffffffffffffffffffffffffffffff169050600073ffffffffffffffffffffffffffffffffffffffff168173ffffffffffffffffffffffffffffffffffffffff16036102f8576040517f08c379a00000000000000000000000000000000000000000000000000000000081526004016102ef90610c5f565b60405180910390fd5b80915050919050565b60008073ffffffffffffffffffffffffffffffffffffffff168273ffffffffffffffffffffffffffffffffffffffff1603610371576040517f08c379a000000000000000000000000000000000000000000000000000000000815260040161036890610c5f565b60405180910390fd5b600360008373ffffffffffffffffffffffffffffffffffffffff1673ffffffffffffffffffffffffffffffffffffffff168152602001908152602001600020549050919050565b600881815481106103c857600080fd5b9060005260206000200160009150905080546103e390610bbc565b80601f016020809104026020016040519081016040528092919081815260200182805461040f90610bbc565b801561045c5780601f106104315761010080835404028352916020019161045c565b820191906000526020600020905b81548152906001019060200180831161043f57829003601f168201915b505050505081565b60606001805461047390610bbc565b80601f016020809104026020016040519081016040528092919081815260200182805461049f90610bbc565b80156104ec5780601f106104c1576101008083540402835291602001916104ec565b820191906000526020600020905b8154815290600101906020018083116104cf57829003601f168201915b5050505050905090565b6000600480549050905090565b6009816040516105139190610cbb565b908152602001604051809103902060009054906101000a900460ff161561056f576040517f08c379a000000000000000000000000000000000000000000000000000000000815260040161056690610d44565b60405180910390fd5b6008819080600181540180825580915050600190039060005260206000200160009091909190915090816105a39190610f10565b50600060016008805490506105b89190611011565b90506105c433826105ff565b60016009836040516105d69190610cbb565b908152602001604051809103902060006101000a81548160ff0219169083151502179055505050565b6106098282610616565b61061281610769565b5050565b600073ffffffffffffffffffffffffffffffffffffffff168273ffffffffffffffffffffffffffffffffffffffff160361064f57600080fd5b61065881610795565b1561066257600080fd5b816002600083815260200190815260200160002060006101000a81548173ffffffffffffffffffffffffffffffffffffffff021916908373ffffffffffffffffffffffffffffffffffffffff160217905550600360008373ffffffffffffffffffffffffffffffffffffffff1673ffffffffffffffffffffffffffffffffffffffff168152602001908152602001600020600081548092919061070490611045565b9190505550808273ffffffffffffffffffffffffffffffffffffffff16600073ffffffffffffffffffffffffffffffffffffffff167fddf252ad1be2c89b69c2b068fc378daa952ba7f163c4a11628f55a4df523b3ef60405160405180910390a45050565b600481908060018154018082558091505060019003906000526020600020016000909190919091505550565b6000806002600084815260200190815260200160002060009054906101000a900473ffffffffffffffffffffffffffffffffffffffff169050600073ffffffffffffffffffffffffffffffffffffffff168173ffffffffffffffffffffffffffffffffffffffff161415915050919050565b600081519050919050565b600082825260208201905092915050565b60005b83811015610841578082015181840152602081019050610826565b60008484015250505050565b6000601f19601f8301169050919050565b600061086982610807565b6108738185610812565b9350610883818560208601610823565b61088c8161084d565b840191505092915050565b600060208201905081810360008301526108b1818461085e565b905092915050565b6000819050919050565b6108cc816108b9565b82525050565b60006020820190506108e760008301846108c3565b92915050565b6000604051905090565b600080fd5b600080fd5b61090a816108b9565b811461091557600080fd5b50565b60008135905061092781610901565b92915050565b600060208284031215610943576109426108f7565b5b600061095184828501610918565b91505092915050565b600073ffffffffffffffffffffffffffffffffffffffff82169050919050565b60006109858261095a565b9050919050565b6109958161097a565b82525050565b60006020820190506109b0600083018461098c565b92915050565b6109bf8161097a565b81146109ca57600080fd5b50565b6000813590506109dc816109b6565b92915050565b6000602082840312156109f8576109f76108f7565b5b6000610a06848285016109cd565b91505092915050565b600080fd5b600080fd5b7f4e487b7100000000000000000000000000000000000000000000000000000000600052604160045260246000fd5b610a518261084d565b810181811067ffffffffffffffff82111715610a7057610a6f610a19565b5b80604052505050565b6000610a836108ed565b9050610a8f8282610a48565b919050565b600067ffffffffffffffff821115610aaf57610aae610a19565b5b610ab88261084d565b9050602081019050919050565b82818337600083830152505050565b6000610ae7610ae284610a94565b610a79565b905082815260208101848484011115610b0357610b02610a14565b5b610b0e848285610ac5565b509392505050565b600082601f830112610b2b57610b2a610a0f565b5b8135610b3b848260208601610ad4565b91505092915050565b600060208284031215610b5a57610b596108f7565b5b600082013567ffffffffffffffff811115610b7857610b776108fc565b5b610b8484828501610b16565b91505092915050565b7f4e487b7100000000000000000000000000000000000000000000000000000000600052602260045260246000fd5b60006002820490506001821680610bd457607f821691505b602082108103610be757610be6610b8d565b5b50919050565b7f4f776e657220717565727920666f72206e6f6e2d6578697374656e7420746f6b60008201527f656e000000000000000000000000000000000000000000000000000000000000602082015250565b6000610c49602283610812565b9150610c5482610bed565b604082019050919050565b60006020820190508181036000830152610c7881610c3c565b9050919050565b600081905092915050565b6000610c9582610807565b610c9f8185610c7f565b9350610caf818560208601610823565b80840191505092915050565b6000610cc78284610c8a565b915081905092915050565b7f4572726f72202d206b727970746f4269726420616c726561647920657869737460008201527f7300000000000000000000000000000000000000000000000000000000000000602082015250565b6000610d2e602183610812565b9150610d3982610cd2565b604082019050919050565b60006020820190508181036000830152610d5d81610d21565b9050919050565b60008190508160005260206000209050919050565b60006020601f8301049050919050565b600082821b905092915050565b600060088302610dc67fffffffffffffffffffffffffffffffffffffffffffffffffffffffffffffffff82610d89565b610dd08683610d89565b95508019841693508086168417925050509392505050565b6000819050919050565b6000610e0d610e08610e03846108b9565b610de8565b6108b9565b9050919050565b6000819050919050565b610e2783610df2565b610e3b610e3382610e14565b848454610d96565b825550505050565b600090565b610e50610e43565b610e5b818484610e1e565b505050565b5b81811015610e7f57610e74600082610e48565b600181019050610e61565b5050565b601f821115610ec457610e9581610d64565b610e9e84610d79565b81016020851015610ead578190505b610ec1610eb985610d79565b830182610e60565b50505b505050565b600082821c905092915050565b6000610ee760001984600802610ec9565b1980831691505092915050565b6000610f008383610ed6565b9150826002028217905092915050565b610f1982610807565b67ffffffffffffffff811115610f3257610f31610a19565b5b610f3c8254610bbc565b610f47828285610e83565b600060209050601f831160018114610f7a5760008415610f68578287015190505b610f728582610ef4565b865550610fda565b601f198416610f8886610d64565b60005b82811015610fb057848901518255600182019150602085019450602081019050610f8b565b86831015610fcd5784890151610fc9601f891682610ed6565b8355505b6001600288020188555050505b505050505050565b7f4e487b7100000000000000000000000000000000000000000000000000000000600052601160045260246000fd5b600061101c826108b9565b9150611027836108b9565b925082820390508181111561103f5761103e610fe2565b5b92915050565b6000611050826108b9565b91507fffffffffffffffffffffffffffffffffffffffffffffffffffffffffffffffff820361108257611081610fe2565b5b60018201905091905056fea2646970667358221220de50f85b7d42154f05ef202f54eb9d882d4fcafbee55bc440e314bdb0aa794d264736f6c63430008100033",
  "immutableReferences": {},
  "source": "// SPDX-License-Identifier: MIT\r\npragma solidity ^0.8.0;\r\n\r\nimport './ERC721Connector.sol';\r\ncontract KryptoBird is ERC721Connector {\r\n\r\n    // array to store our nfts\r\n    string [] public kryptoBirdz;\r\n\r\n    mapping(string => bool) _kryptoBirdzExists;\r\n\r\n    function mint(string memory _kryptoBird) public {\r\n\r\n        require(!_kryptoBirdzExists[_kryptoBird],\r\n        'Error - kryptoBird already exists');\r\n        // this is deprecated - uint _id = KryptoBirdz.push(_kryptoBird);\r\n        kryptoBirdz.push(_kryptoBird);\r\n        uint _id = kryptoBirdz.length - 1;\r\n        \r\n        // .push no longer returns the length but a ref to the added element\r\n        _mint(msg.sender, _id);\r\n\r\n        _kryptoBirdzExists[_kryptoBird] = true;\r\n\r\n    }\r\n\r\n    constructor() ERC721Connector('KryptoBird','KBIRDZ')\r\n {}\r\n\r\n}\r\n\r\n\r\n",
  "sourcePath": "F:\\Code\\DEV\\BlockChain\\NFT-Marketplace\\src\\contracts\\KryptoBirdz.sol",
  "compiler": {
    "name": "solc",
    "version": "0.8.16+commit.07a7930e.Emscripten.clang"
  },
  "schemaVersion": "3.4.8",
  "updatedAt": "2022-09-01T20:08:02.878Z",
  "networkType": "ethereum",
  "devdoc": {
    "kind": "dev",
    "methods": {
      "balanceOf(address)": {
        "details": "NFTs assigned to the zero address are considered invalid, and this  function throws for queries about the zero address.",
        "params": {
          "_owner": "An address for whom to query the balance"
        },
        "returns": {
          "_0": "The number of NFTs owned by `_owner`, possibly zero"
        }
      },
      "ownerOf(uint256)": {
        "details": "NFTs assigned to zero address are considered invalid, and queries  about them do throw.",
        "params": {
          "_tokenId": "The identifier for an NFT"
        },
        "returns": {
          "_0": "The address of the owner of the NFT"
        }
      }
    },
    "version": 1
  },
  "userdoc": {
    "kind": "user",
    "methods": {
      "balanceOf(address)": {
        "notice": "Count all NFTs assigned to an owner"
      },
      "ownerOf(uint256)": {
        "notice": "Find the owner of an NFT"
      }
    },
    "version": 1
  }
}